:020000040800F2
:1000000000000220C9020008CF020008D302000845
:1000100045030008490300089103000800000000A0
:10002000000000000000000000000000D9030008EC
:10003000DD03000800000000E1030008B51300081C
:10004000F5030008F5030008F5030008F5030008B0
:10005000F5030008F5030008F5030008F5030008A0
:10006000F5030008F5030008F5030008F503000890
:10007000F5030008F5030008F5030008F503000880
:10008000F5030008F5030008F50300080000000070
:10009000000000000000000000000000F503000860
:1000A000F5030008F5030008F5030008F503000850
:1000B000F5030008F5030008F5030008F503000840
:1000C000F5030008F5030008F5030008F503000830
:1000D000F5030008F5030008F50300080000000020
:1000E000F5030008F5030008F50300080000000010
:1000F000000000000000000000000000F503000800
:1001000000000000F5030008F5030008F5030008EF
:1001100000000000000000000000000000000000DF
:10012000F5030008F5030008F5030008F5030008CF
:10013000F5030008000000000000000000000000BF
:10014000000000000000000000000000F5030008AF
:10015000F5030008F5030008F5030008F50300089F
:10016000F5030008F503000800000000000000008F
:10017000000000000000000000000000000000007F
:1001800000000000F503000800000000000000006F
:10019000F5030008F503000800B583B000F0BAFFCE
:1001A000384B394A1360394A1360394906E052F82E
:1001B000041B43F8041B9842F9D86146354B994219
:1001C00005D20A684B6801F10C0C8868F3E72E4BE6
:1001D0001A68314B9A4200D0FEE72C4B1A682F4B1D
:1001E0009A42F9D1274B2E4A13602E4A13602E4AA9
:1001F00000E002462D4B9A4209D2104650F8083BC7
:1002000051689942F5D9002243F8042BF9E7244BB1
:100210001B6813B9234B1B6803B1FEE701F01CF9FF
:10022000694601A800F006FF214C224BE41AA410F5
:10023000002504E01F4B53F8253098470135AC42A8
:10024000F8DC1D4C1D4BE41AA410002504E01B4BE8
:1002500053F8253098470135AC42F8DC00990198F5
:1002600001F002F90546164C164BE41AA41004E0FE
:10027000013C144B53F824309847002CF8DC2846F6
:1002800000F0AAFEBABADECA000000207400002006
:10029000F803000810040008785634123254769897
:1002A000780000201C010020100400082004000831
:1002B000200400082004000820040008200400088E
:1002C000200400082004000808B5FFF765FF00BE01
:1002D000FEE71EF0040F0CBFEFF30880EFF3098078
:1002E0007146414A10472DE9F04182B004460D465F
:1002F000124B5F6BD3F838809E6A1B6B13F0020FB2
:1003000003D00E4BDB6A002B0BDB0D4800F0A4FE84
:10031000009543463A463146204600F007FF00BEAE
:10032000FEE74BF6AB6100F07BFF0028EDD0034BFE
:100330004FF00042DA6202B0BDE8F08100ED00E06B
:100340002020000800BEFEE71EF0040F0CBFEFF3F4
:100350000880EFF309807146244A10472DE9F041E7
:1003600082B004460D46084B5F6BD3F838809E6A16
:10037000064800F071FE009543463A463146204655
:1003800000F0D4FE00BEFEE700ED00E030200008E3
:100390001EF0040F0CBFEFF30880EFF309807146E5
:1003A000134A10472DE9F04182B004460D46084B30
:1003B0005F6BD3F838809E6A064800F04DFE0095CA
:1003C00043463A463146204600F0B0FE00BEFEE706
:1003D00000ED00E03C20000800BEFEE700BEFEE7A6
:1003E00000BEFEE770470000E70200085D0300085A
:0803F000A503000800BEFEE7B2
:1003F800C82000080000002078000020C82000085D
:1004080000000010000000107800002020010020EB
:080418000000001000000010BC
:1004200010B50446074B1868074BA3FB0030800942
:1004300000F098F8002221464FF0FF3000F04CF811
:10044000002010BD0C000020D34D621008B50B4BEE
:100450001A6842F400721A601A6842F480621A60E4
:100460001A6842F480721A60032000F017F80F2017
:10047000FFF7D6FF01F02CF8002008BD003C024039
:10048000024A136801331360704700BF7C000020EC
:10049000014B1868704700BF7C00002010B504466F
:1004A000C31E042B0FD80A4AD36823F4E0631B044D
:1004B0001B0C240204F4E064234343F0BF6343F4C1
:1004C0000033D36010BDA421024800F0BBFDEAE771
:1004D00000ED00E0201E000870B505460C461646EB
:1004E0000F2A25D80F2C28D81B4BDB68C3F3022317
:1004F000C3F10701042928BF04211A1D062A21D9A6
:10050000033B4FF0FF3202FA01F124EA01049C4060
:1005100002FA03F326EA03063443002D14DB240118
:10052000E4B205F1604505F5614585F8004370BD0D
:10053000BC210A4800F086FDD4E7BD21074800F041
:1005400081FDD1E70023DCE705F00F052401E4B2CB
:10055000034B5C55EBE700BF00ED00E0201E0008F8
:1005600014ED00E00138B0F1807F0BD24FF0E023B2
:100570005861054AF02182F8231000209861072273
:100580001A6170470120704700ED00E010B5044685
:10059000042800D040B9042C0CD04FF0E02213699D
:1005A00023F00403136110BD40F2B311054800F0BD
:1005B00049FDF0E74FF0E022136943F004031361B3
:1005C000F1E700BF201E00082DE9F04782B0074682
:1005D0000E46A04B984217D003F58063984213D083
:1005E00003F5806398420FD003F5806398420BD0E7
:1005F00003F58063984207D003F54063984203D027
:10060000C521954800F01EFD338833B37368012B74
:100610001ED9112B1CD0022B1AD0122B18D08F4AA6
:10062000934215D002F58012934211D002F5801248
:1006300093420DD0A2F5F812934209D002F5801230
:10064000934205D002F58012934201D0032B09D1C9
:10065000B368022B0BD8002450E0C6217E4800F07E
:10066000F1FCD3E7C7217C4800F0ECFCF0E7C8219F
:10067000794800F0E7FCEEE7D921774800F0E2FC8A
:1006800064E0EC21744800F0DDFC8CE0042300E021
:1006900000238B4003430232714941F82230714BF1
:1006A0001A686FEA080322EA0801706810F4803FB4
:1006B00001D048EA02016B4A1160526803EA020164
:1006C000706810F4003F01D048EA0201654A5160A9
:1006D000926803EA0201706810F4801F01D048EAB2
:1006E0000201604A9160D2681340716811F4001FE2
:1006F00001D048EA02035B4AD36001340F2C00F2B8
:10070000A5800125A540336803EA050835EA0303FF
:10071000F3D17368022B01D0122B27D13369ABB10F
:10072000092B13D0012B11D0022B0FD0042B0DD08D
:10073000052B0BD0062B09D0072B07D0082B05D093
:100740000A2B03D00C2B01D00F2B95D1E2080832D5
:1007500057F8220004F0070399000F238B4020EA8A
:10076000030033698B40034347F822303A684FEA6D
:10077000440A032303FA0AF36FEA030922EA030295
:10078000736803F0030303FA0AF313433B607368CF
:100790005A1E012A03D9112B01D0122B14D1F36850
:1007A000032B3FF66EAFBA6809EA0202F36803FA58
:1007B0000AF31343BB607A6822EA05027368C3F345
:1007C0000015A54015437D60FB6809EA0309B3687D
:1007D00003FA0AF343EA0903FB60736813F0805FCE
:1007E0008BD000230193204B5A6C42F480425A6410
:1007F0005B6C03F480430193019BA208911C184B8E
:1008000053F8210004F0030399000F238B4020EAE2
:100810000300104B9F423FF43BAF03F580639F42C0
:100820000ED003F580639F420CD003F580639F4296
:100830000AD003F580639F423FF428AF052328E7E1
:10084000012326E7022324E7032322E702B0BDE8C1
:10085000F08700BF00000240541E00080000111085
:1008600000380140003C01400038024070B50546A8
:1008700014460E4621B1012C08D86CB1AE6170BD92
:1008800040F2B111064800F0DDFBF4E74FF4D971F6
:10089000034800F0D7FBF0E73604AE61EFE700BF96
:1008A000541E000830B583B0044603680F2B29D8C6
:1008B000236813F0010F3DD06368012B01D9052B8C
:1008C00025D1A44B9B6803F00C03042B29D0A14B2A
:1008D0009B6803F00C03082B1ED022799D4B9A7065
:1008E0006368002B50D0FFF7D3FD0546994B1B687A
:1008F00013F4003F1ED1FFF7CBFD401B6428F5D950
:100900000320E0E1F521944800F09CFBD0E7FA21B8
:10091000914800F097FBD4E78E4B5B6813F4800F8F
:10092000DBD08C4B1B6813F4003F03D06368002BB3
:1009300000F0C481236813F0020F5CD0E368012B40
:1009400031D823691F2B34D8824B9B6813F00C0FCE
:100950003AD0804B9B6803F00C03082B2FD0E36840
:10096000002B74D07D4B01221A60FFF791FD0546E4
:10097000784B1B6813F0020F5AD1FFF789FD401B1B
:100980000228F5D903209EE1FFF782FD0546714B51
:100990001B6813F4003FCDD0FFF77AFD401B64289D
:1009A000F5D903208FE14FF496716B4800F04AFBB4
:1009B000C7E740F22D11684800F044FBC4E7654BDF
:1009C0005B6813F4800FCAD1624B1B6813F0020FEF
:1009D00003D0E368012B40F073815E48036823F085
:1009E000F8032169F82292FAA2F2B2FA82F201FA2D
:1009F00002F213430360236813F0080F52D06369B7
:100A0000012B36D86369002B39D0544B0122C3F82F
:100A1000802EFFF73DFD05464E4B5B6F13F0020F36
:100A200040D1FFF735FD401B0228F5D903204AE1EC
:100A30004848036823F0F8032169F82292FAA2F2E9
:100A4000B2FA82F201FA02F213430360D3E7434B96
:100A500000221A60FFF71CFD05463E4B1B6813F091
:100A6000020FC8D0FFF714FD401B0228F5D9032060
:100A700029E140F26D11384800F0E4FAC2E7374B43
:100A80000022C3F8802EFFF703FD0546314B5B6F54
:100A900013F0020F06D0FFF7FBFC401B0228F5D92C
:100AA000032010E1236813F0040F5BD0A368012B2F
:100AB00001D9052B1FD100230193264B1A6C42F05C
:100AC00080521A641B6C03F080530193019B244AEB
:100AD000136843F480731360FFF7DAFC0546204B7C
:100AE0001B6813F4807F0CD1FFF7D2FC401B022857
:100AF000F5D90320E7E040F29711174800F0A2FA79
:100B0000D9E7227A134B83F87020A36883B1FFF7EB
:100B1000BFFC05460F4B1B6F13F0020F22D1FFF7EE
:100B2000B7FC401B41F288339842F3D90320CAE056
:100B3000FFF7AEFC0546074B1B6F13F0020F11D0F9
:100B4000FFF7A6FC401B41F288339842F3D90320FB
:100B5000B9E000BF00380240841E00080000474290
:100B600000700040A369022B38D8A369002B00F065
:100B7000A980574A926802F00C02082A00F0A5806A
:100B8000022B40F08780E36913B1B3F5800F2BD1BE
:100B9000236A3F2B2ED8636AC03BF02B30D8A36A60
:100BA000022B05D0042B03D0062B01D0082B2DD10E
:100BB000E36A043B0B2B2FD8464B00221A66FFF743
:100BC00067FC0546424B1B6813F0007F2AD0FFF7F5
:100BD0005FFC401B0228F5D9032074E04FF4E67156
:100BE0003D4800F02FFAC0E740F2D5113A4800F036
:100BF00029FACDE74FF4EB71374800F023FACAE742
:100C000040F2D711344800F01DFAC8E74FF4EC71F8
:100C1000314800F017FACBE740F2D9112E4800F026
:100C200011FAC9E7E369226A1343616A47F6C072A1
:100C300092FAA2F2B2FA82F201FA02F21343A26A23
:100C40005208013A4FF4403191FAA1F1B1FA81F121
:100C50008A401343E16A4FF0706292FAA2F2B2FA4C
:100C600082F201FA02F21343194A5360194B01222E
:100C70001A66FFF70DFC0446154B1B6813F0007F46
:100C800006D1FFF705FC001B0228F5D903201AE066
:100C9000002018E00F4B00221A66FFF7F9FB04460C
:100CA0000B4B1B6813F0007F06D0FFF7F1FB001B16
:100CB0000228F5D9032006E0002004E0012002E02C
:100CC000012000E0002003B030BD0120FBE700BFA1
:100CD0000038024000004742841E0008224B9B68F7
:100CE00003F00C03042B3AD0082B3AD11E4A536868
:100CF00003F03F03526812F4800F1FD01B48B0FB73
:100D0000F3F0194B5A6847F6C0731A4093FAA3F3ED
:100D1000B3FA83F322FA03F303FB00F0124B5B6890
:100D200003F440334FF4403292FAA2F2B2FA82F264
:100D3000D34001335B00B0FBF3F070470C48B0FBCD
:100D4000F3F0094B5A6847F6C0731A4093FAA3F3BD
:100D5000B3FA83F322FA03F303FB00F0DEE7034860
:100D600070470348704700BF0038024000E1F505B6
:100D70000024F40070B504460D460368013B0E2BB9
:100D80005ED8072D62D88C4B1B6803F00F03AB4273
:100D900008D2EBB2884A1370136803F00F03AB421A
:100DA00040F00481236813F0020F18D0A3687BB1D0
:100DB000802B0DD0902B0BD0A02B09D0B02B07D0BF
:100DC000C02B05D0D02B03D0E02B01D0F02B43D18A
:100DD0007A4A936823F0F003A1680B439360236879
:100DE00013F0010F7FD06368032B3BD86368012B9E
:100DF0003ED09A1E012A42D9704A126812F0020FA0
:100E000000F0D6806D498A6822F0030213438B609C
:100E1000FFF73EFB06466368012B37D0022B44D018
:100E2000032B51D0654B9B6813F00C0F5BD0FFF781
:100E30002FFB801B41F288339842F3D90320A8E0AE
:100E400040F237215E4800F0FDF89AE74FF40E714A
:100E50005B4800F0F7F896E740F24F21584800F061
:100E6000F1F8B5E740F25621554800F0EBF8BDE740
:100E7000524A126812F4003FC4D1012089E04F4A5F
:100E8000126812F0007FBDD1012082E04B4B9B68BD
:100E900003F00C03042B26D0FFF7FAFA831B41F270
:100EA00088329342F2D9032073E0444B9B6803F0ED
:100EB0000C03082B17D0FFF7EBFA801B41F28833A5
:100EC0009842F2D9032064E03C4B9B6803F00C038A
:100ED0000C2B08D0FFF7DCFA801B41F288339842D4
:100EE000F2D9032055E0344B1B6803F00F03AB42EB
:100EF00007D9EAB2304B1A701B6803F00F03AB42FC
:100F000058D1236813F0040F14D0E3685BB1B3F534
:100F1000805F08D0B3F5A05F05D0B3F5C05F02D005
:100F2000B3F5E05F36D1254A936823F4E053E168D6
:100F30000B439360236813F0080F15D023695BB14E
:100F4000B3F5805F08D0B3F5A05F05D0B3F5C05FFF
:100F500002D0B3F5E05F23D1184A936823F46043CD
:100F6000216943EAC1039360FFF7B8FE134B9B6806
:100F700003F0F003F02292FAA2F2B2FA82F2D34026
:100F8000104AD35CD840104B18600F20FFF748FA86
:100F9000002070BD4FF42D71094800F053F8C2E7EE
:100FA00040F2BB21064800F04DF8D5E70120F0E7FC
:100FB0000120EEE70120ECE7003C0240003802404F
:100FC000841E0008B41E00080C000020014B1868A5
:100FD000704700BF0C000020FEE7000008B5034882
:100FE00000F054F80120FFF7F7FF00BFC41E00080F
:100FF00008B503460C4A12685AB10B4A106803330D
:1010000023F003030344094A934206D8064A1360B7
:1010100008BD054A06491160EFE700F05BFA0C23B2
:1010200003604FF0FF30F3E78000002000FC012058
:101030002001002001230360014B0B60704700BFBB
:101040000400002008B50A460146024800F004F8F2
:10105000FFF7C4FFD81E00080FB400B583B004AB7F
:1010600053F8042B01938021074800F06DFA002803
:1010700004DC03B05DF804EB04B07047014602489D
:1010800000F044F8F5E700BF8C00002010B50446DE
:1010900000F026FA0146204600F038F80121024807
:1010A00000F034F810BD00BF9C1F00082DE9F0438C
:1010B00085B004460F46435633BB042528462146D7
:1010C000ABBE0446384605B0BDE8F08314F901CB49
:1010D00004AA1A4402F810CC0133AB42F6D304AA96
:1010E0001344002203F8102C4FF00408E946404650
:1010F0004946ABBE8046761B002EE3D03546102E07
:1011000028BF10250023E8E70E46F5E708B5FFF7EE
:10111000CDFF08BD08B500F093F8024A024B9A6073
:1011200008BD00BF0000000800ED00E0F8B504466F
:101130000D4617461E462748FFF78EFF21682648B2
:10114000FFF78AFF61682548FFF786FFA1682448FA
:10115000FFF782FFE1682348FFF77EFF21692248FD
:10116000FFF77AFF61692148FFF776FFA169204800
:10117000FFF772FFE1691F48FFF76EFF1E48FFF798
:101180006BFF29461D48FFF767FF1D4CE16A1D48AC
:10119000FFF762FF216B1C48FFF75EFFE16B1B4806
:1011A000FFF75AFF15F0800F0AD115F4004F0CD14C
:1011B0001748FFF751FF06991648FFF74DFFF8BD96
:1011C00039461548FFF748FFEFE731461348FFF768
:1011D00043FFEDE7041F0008141F0008241F000848
:1011E000341F0008441F0008541F0008641F000833
:1011F000741F0008841F0008941F0008A01F000827
:1012000000ED00E0B01F0008C01F0008D01F00085C
:101210000020000808200008E01F0008F01F000858
:1012200083691A888A4201D0002070470268033A15
:10123000012A01D9002070470233836101207047E1
:101240000C4B1A6842F001021A60002199601A687A
:1012500022F0847222F480321A60074A5A601A68B7
:1012600022F480221A60D960044B4FF000629A6029
:10127000704700BF003802401030002400ED00E04D
:10128000224B9B6803F00C03042B14D0082B16D0C0
:101290001BB11F4B1F4A1A6002E01D4B1D4A1A600A
:1012A0001A4B9B68C3F303131B4AD15C184A13689B
:1012B000CB4013607047164B184A1A60F0E7134B87
:1012C00059685A6802F03F0211F4800F13D0134B93
:1012D000B3FBF2F30D4A5268C2F3881202FB03F328
:1012E0000A4A5268C2F3014201325200B3FBF2F3E0
:1012F000074A1360D4E7074BB3FBF2F3034A526883
:10130000C2F3881202FB03F3EAE700BF0038024091
:101310000C0000200024F4004C20000800E1F5053A
:1013200000B587B040230193012302930222049267
:10133000039301A90548FFF747F900224FF4005134
:101340000348FFF793FA07B05DF804FB000402407E
:10135000000802400A4B1B680A4AA2FB03235B09F0
:10136000013BB3F1807F0AD24FF0E0225361064B7C
:10137000F02183F823100023936107231361704742
:101380000C0000201F85EB5100ED00E0034B1860BE
:10139000024B1B68002BFBD1704700BF0C010020E3
:1013A000034B1B681BB1024A1368013B1360704773
:1013B0000C01002008B5FFF763F8FFF7F1FF08BD47
:1013C00070B594B000240194204B1A6C42F0805206
:1013D0001A641B6C03F080530193019B02941C4B15
:1013E0001A6842F440421A601B6803F440430293B7
:1013F000029B0123089309934FF480030F93642306
:1014000010934FF4A8731193042612960723139395
:1014100002250E9508A8FFF745FA0F2303930495BC
:1014200005944FF4805306930794294603A8FFF7C9
:10143000A1FCFFF7CBFD074BA3FB00308009FFF7B2
:1014400091F83046FFF7A2F814B070BD00380240A2
:1014500000700040D34D621008B5FEF7F7FFFFF7AC
:10146000AFFFFFF70DFF08BD10B51448FFF70EFEE4
:10147000134B19681348FFF7EFFDFFF76BFFFFF7FA
:101480004FFF002410E06420FFF780FF00224FF49C
:1014900000510D48FFF7EAF93220FFF777FF0134DA
:1014A00021460A48FFF7D8FD01224FF400510648B3
:1014B000FFF7DCF9002CE6D03220E5E75C200008DD
:1014C0000C0000207020000800080240882000085E
:1014D00070470000014B1868704700BF10000020E3
:1014E000034613F8012B002AFBD1181A0138704764
:1014F00030B51446002C9BB005461A4605DA8B23FE
:1015000003604FF0FF301BB030BD4FF40273ADF8F5
:101510000C3014BF04F1FF332346029305934FF6BA
:10152000FF7300910491ADF80E3069461E9B00F0E8
:1015300075F8431CBCBF8B232B60002CE3D0009BB1
:1015400000221A70DFE7000007B5009313460A4631
:10155000014603480068FFF7CBFF03B05DF804FBCA
:10156000100000202DE9F0478E689E4282460C460E
:1015700090461F4638D88A8912F4906F32D0256879
:101580000969A5EB0109656905EB450505EBD5750D
:1015900001334B446D109D4238BF1D46530531D574
:1015A000294600F097FB064650B90C23CAF80030D4
:1015B000A38943F04003A3814FF0FF30BDE8F087DB
:1015C00021694A4600F014FBA38923F4906343F099
:1015D0008003A381266165614E44A5EB0905266061
:1015E000A5603E46BE4200D93E462068324641468E
:1015F00000F00CFBA3689B1BA360236833442360AB
:101600000020DBE72A4600F0BFFB06460028E1D1B8
:101610002169504600F014FBC7E700002DE9F04FA8
:1016200098468B891B069DB007460D4614460ED57D
:101630000B6963B9402100F04DFB2860286120B997
:101640000C233B604FF0FF30D1E040236B6100235F
:10165000099320238DF82930CDF80C803023DFF852
:10166000A8818DF82A304FF0010923469A4613F8D5
:10167000012B0AB1252AF9D1BAEB040B0BD05B463A
:10168000224629463846FFF76DFF013000F0AA8058
:10169000099A5A4409929AF80030002B00F0A2806F
:1016A00000234FF0FF32CDE905230AF1010A04932C
:1016B00007938DF853301A935446052214F8011BF2
:1016C000514800F045FA049AD8B9D00644BF202307
:1016D0008DF85330110744BF2B238DF853309AF8FF
:1016E00000302A2B15D0079A544600204FF00A0CE0
:1016F000214611F8013B303B092B4ED9B0B107927E
:1017000014E0A0EB080309FA03F313430493A24681
:10171000D2E7039B191D1B680391002BBBBF5B42E3
:1017200042F0020207930793B8BF049223782E2B4E
:101730000CD163782A2B35D1039B1A1D1B680392A9
:10174000002BB8BF4FF0FF3302340593DFF8BCA085
:1017500021780322504600F0FBF940B14023A0EB72
:101760000A0003FA00F0049B03430134049314F8C5
:10177000011B27488DF82810062200F0E9F90028FF
:1017800038D0244B1BBB039B073323F007030833DC
:101790000393099B3344099367E70CFB02320C4621
:1017A0000120A5E700230134059319464FF00A0CE8
:1017B000204610F8012B303A092A03D9002BC5D056
:1017C0000591C3E70CFB012104460123F0E703ABBD
:1017D00000932A46104B04A93846AFF30080421C00
:1017E0000646D6D1AB895B063FF52CAF09981DB0F4
:1017F000BDE8F08F03AB00932A46074B04A9384697
:1018000000F07AF8EBE700BF932000089920000869
:101810009D20000800000000651500082DE9F04734
:10182000164699468A680B69DDF820809342B8BF56
:101830001346336091F8432007460C460AB1013342
:1018400033602368990642BF3368023333602568EA
:1018500015F0060506D104F1190AE36832689B1AEF
:10186000AB4226DC94F84320131E226818BF0123E4
:1018700092062BD404F1430249463846C047013052
:101880001ED02368E568326803F00603042B08BF06
:10189000AD1AA36822690CBF25EAE57500259342BD
:1018A000C4BF9B1AED1800261A34B5421AD1002085
:1018B00008E00123524649463846C047013003D16B
:1018C0004FF0FF30BDE8F0870135C6E7E1185A1C3C
:1018D000302081F84300224494F8451082F84310E8
:1018E0000233C7E70123224649463846C047013044
:1018F000E6D00136D9E700002DE9FF470F7E0C9DA9
:10190000782F914680460C469A4601F1430207D84B
:10191000622F0AD8002F00F0D880582F00F0A38043
:1019200004F1420584F842703AE0A7F16303152BF5
:10193000F6D801A151F823F091190008A519000863
:10194000211900082119000821190008211900088F
:10195000A5190008211900082119000821190008FB
:1019600021190008B11A0008D5190008931A0008B7
:101970002119000821190008D31A000821190008AC
:10198000D519000821190008211900089B1A000820
:101990002B681A1D1B682A6004F1420584F8423046
:1019A0000123A3E020682968060601F104030AD593
:1019B0000E682B60002E03DA2D23764284F8433024
:1019C0005E480A2319E00E682B6010F0400F18BF24
:1019D00036B2EFE72B682068191D2960010601D592
:1019E0001E6802E04606FBD51E8854486F2F0CBFC8
:1019F00008230A23002184F843106568A560002DA0
:101A0000A2BF216821F0040121600EB9002D4DD044
:101A10001546B6FBF3F103FB1167C75D05F8017DC1
:101A20003746BB420E46F4D9082B0BD12368DE079C
:101A300008D5236961689942DEBF302305F8013C6F
:101A400005F1FF35521B2261CDF800A04B4603AAD9
:101A500021464046FFF7E2FE01304CD14FF0FF3007
:101A600004B0BDE8F087354881F8457029682368DF
:101A700051F8046B29601D0614D5DF0744BF43F0FD
:101A8000200323601EB9236823F020032360102362
:101A9000B0E7236843F0200323607823284884F8C4
:101AA0004530E3E7590648BFB6B2E6E71546BBE75F
:101AB0002B6826686169181D286035061B6801D5EA
:101AC000196002E07006FBD51980002323611546DA
:101AD000BAE72B681A1D2A601D6862680021284633
:101AE00000F036F808B1401B606063682361002392
:101AF00084F84330A8E723692A4649464046D04740
:101B00000130ABD023689B0713D4E068039B984255
:101B1000B8BF1846A4E70123324649464046D0479D
:101B200001309BD00135E36803995B1AAB42F2DCCC
:101B3000EBE7002504F11906F5E700BFA420000833
:101B4000B5200008000000000000000000000000B8
:101B500001F0FF01102A2BDB10F0070F08D010F85E
:101B6000013B013A8B422DD010F0070F42B3F6D162
:101B7000F0B441EA012141EA014122F007047FF07B
:101B800000070023F0E80256083C85EA010586EAD2
:101B9000010685FA47F5A3FA87F586FA47F6A5FA0E
:101BA00087F68EB9EED1F0BC01F0FF0102F007021A
:101BB00032B110F8013B013A83EA010313B1F8D1C5
:101BC0000020704701387047002D06BF35460338A6
:101BD000073815F0010F07D1013015F4807F02BFDF
:101BE000013015F4C03F0130F0BC0138704700BF30
:101BF0000A44914200F1FF3300D1704710B511F84B
:101C0000014B03F8014F9142F9D110BD884210B544
:101C100001EB020402D98442234607D8431EA142A5
:101C200008D011F8012B03F8012FF8E70244014610
:101C30008A4200D110BD13F8014D02F8014DF7E7BB
:101C400038B50546002941D051F8043C0C1F002B43
:101C5000B8BFE41800F0CEF81D4A136833B96360CA
:101C600014602846BDE8384000F0CAB8A34208D93D
:101C7000206821188B4201BF19685B680918216030
:101C8000EDE71A465B680BB1A342FAD91168501808
:101C9000A0420BD120680144501883421160E0D16A
:101CA00018685B68536001441160DAE702D90C23BD
:101CB0002B60D6E7206821188B4204BF19685B6847
:101CC000636004BF091821605460CAE738BD00BFD3
:101CD00010010020F8B5CD1C25F0030508350C2DAA
:101CE00038BF0C25002D064601DBA94203D90C2381
:101CF00033600020F8BD00F07DF821490A681446E1
:101D00009CB9204F3B6823B92146304600F062F869
:101D100038602946304600F05DF8431C23D10C237F
:101D20003360304600F06CF8E3E723685B1B17D4A0
:101D30000B2B03D923601C44256004E06368A24296
:101D40000CBF0B605360304600F05AF804F10B00F2
:101D5000231D20F00700C21ACCD01B1AA350C9E7DC
:101D600022466468CCE7C41C24F00304A042E3D0FC
:101D7000211A304600F02EF80130DDD1CFE700BF48
:101D80001001002014010020F8B5074614460E4645
:101D900021B9BDE8F8401146FFF79CBF22B9FFF713
:101DA0004FFF25462846F8BD00F030F8A0420FD27C
:101DB00021463846FFF78EFF05460028F2D031460F
:101DC0002246FFF715FF31463846FFF739FFE9E7AE
:101DD0003546E7E738B5064D0023044608462B6034
:101DE000FFF706F9431C02D12B6803B1236038BD0D
:101DF00084000020014800F011B800BF1801002045
:101E0000014800F00CB800BF1801002051F8043C54
:101E1000181F002BBCBF0B58C01870477047704785
:101E20002E2E2F73797374656D2F7372632F7374F5
:101E30006D333266342D68616C2F73746D33326686
:101E40003478785F68616C5F636F727465782E6355
:101E5000000000002E2E2F73797374656D2F73723E
:101E6000632F73746D333266342D68616C2F737415
:101E70006D3332663478785F68616C5F6770696F64
:101E80002E6300002E2E2F73797374656D2F73727D
:101E9000632F73746D333266342D68616C2F7374E5
:101EA0006D3332663478785F68616C5F7263632E7D
:101EB00063000000000000000102030401020304AB
:101EC0000607080961626F727428292C20657869F9
:101ED00074696E672E2E2E006173736572745F7065
:101EE0006172616D2829206661696C65643A2066BB
:101EF000696C6520222573222C206C696E65202573
:101F0000640A0000537461636B206672616D653A08
:101F10000A000000205230203D2020253038580A89
:101F200000000000205231203D2020253038580A82
:101F300000000000205232203D2020253038580A71
:101F400000000000205233203D2020253038580A60
:101F50000000000020523132203D20253038580A40
:101F600000000000204C52203D2020253038580A27
:101F700000000000205043203D2020253038580A22
:101F80000000000020505352203D20253038580AD0
:101F9000000000004653522F4641523A0A0000000A
:101FA0002043465352203D2020253038580A000057
:101FB0002048465352203D2020253038580A000042
:101FC0002044465352203D2020253038580A000036
:101FD0002041465352203D2020253038580A000029
:101FE000204D4D464152203D20253038580A0000F2
:101FF0002042464152203D2020253038580A00001A
:102000004D6973630A000000204C522F4558435F0E
:1020100052455455524E3D20253038580A00000094
:102020005B486172644661756C745D0A0000000073
:102030005B4275734661756C745D0A005B55736134
:1020400067654661756C745D0A0000000000000061
:1020500000000000010203040607080948656C6CD3
:102060006F2041726D20576F726C64210000000078
:1020700053797374656D20636C6F636B3A202575BB
:1020800020487A0A000000005365636F6E642025C3
:10209000750A00232D302B2000686C4C00656667A4
:1020A00045464700303132333435363738394142CE
:1020B00043444546003031323334353637383961A0
:0620C00062636465660026
:1020C8007856341288000020000000000024F40034
:1020D80014000020000000000000000000000000C4
:1020E80000000000000000000000000000000000E8
:1020F80000000000000000000000000000000000D8
:1021080000000000000000000000000000000000C7
:1021180000000000000000000000000000000000B7
:1021280000000000000000000000000000000000A7
:0821380000000000325476980B
:040000050800019955
:00000001FF
