:020000040800F2
:1000000000000220B9020008BF020008C302000875
:1000100035030008390300088103000800000000D0
:10002000000000000000000000000000C9030008FC
:10003000CD03000800000000D1030008D50300082C
:10004000E5030008E5030008E5030008E5030008F0
:10005000E5030008E5030008E5030008E5030008E0
:10006000E5030008E5030008E5030008E5030008D0
:10007000E5030008E5030008E5030008E5030008C0
:10008000E5030008E5030008E5030008E5030008B0
:10009000E5030008E5030008E5030008E5030008A0
:1000A000E5030008E5030008E5030008E503000890
:1000B000E5030008E5030008E5030008E503000880
:1000C000E5030008E5030008E5030008E503000870
:1000D000E5030008E5030008E5030008E503000860
:1000E000E5030008E5030008E5030008E503000850
:1000F000E5030008E5030008E5030008E503000840
:10010000E5030008E5030008E5030008E50300082F
:10011000E5030008E5030008E5030008E50300081F
:10012000E5030008E5030008E5030008E50300080F
:10013000E5030008E5030008E5030008E5030008FF
:10014000E5030008E5030008E5030008E5030008EF
:10015000E5030008E5030008E5030008E5030008DF
:10016000E5030008E5030008E5030008E5030008CF
:10017000E5030008E5030008E503000800000000AF
:10018000E5030008E503000800B583B000F044FE75
:10019000384B394A1360394A1360394906E052F83E
:1001A000041B43F8041B9842F9D86146354B994229
:1001B00005D20A684B6801F10C0C8868F3E72E4BF6
:1001C0001A68314B9A4200D0FEE72C4B1A682F4B2D
:1001D0009A42F9D1274B2E4A13602E4A13602E4AB9
:1001E00000E002462D4B9A4209D2104650F8083BD7
:1001F00051689942F5D9002243F8042BF9E7244BC2
:100200001B6813B9234B1B6803B1FEE700F058FFCE
:10021000694601A800F090FD214C224BE41AA4107D
:10022000002504E01F4B53F8253098470135AC42B8
:10023000F8DC1D4C1D4BE41AA410002504E01B4BF8
:1002400053F8253098470135AC42F8DC0099019805
:1002500000F03EFF0546164C164BE41AA41004E0CD
:10026000013C144B53F824309847002CF8DC284606
:1002700000F034FDBABADECA00000020740000208D
:10028000E8030008000400087856341232547698C7
:100290007800002018010020000400081004000865
:1002A00010040008100400081004000810040008DE
:1002B000100400081004000808B5FFF765FF00BE31
:1002C000FEE71EF0040F0CBFEFF30880EFF3098088
:1002D0007146414A10472DE9F04182B004460D466F
:1002E000124B5F6BD3F838809E6A1B6B13F0020FC2
:1002F00003D00E4BDB6A002B0BDB0D4800F02EFD0C
:10030000009543463A463146204600F091FD00BE36
:10031000FEE74BF6AB6100F005FE0028EDD0034B85
:100320004FF00042DA6202B0BDE8F08100ED00E07B
:10033000F01B000800BEFEE71EF0040F0CBFEFF339
:100340000880EFF309807146244A10472DE9F041F7
:1003500082B004460D46084B5F6BD3F838809E6A26
:10036000064800F0FBFC009543463A4631462046DD
:1003700000F05EFD00BEFEE700ED00E0001C00089E
:100380001EF0040F0CBFEFF30880EFF309807146F5
:10039000134A10472DE9F04182B004460D46084B40
:1003A0005F6BD3F838809E6A064800F0D7FC009552
:1003B00043463A463146204600F03AFD00BEFEE78D
:1003C00000ED00E00C1C000800BEFEE700BEFEE7EA
:1003D00000BEFEE770470000D70200084D0300088A
:0803E0009503000800BEFEE7D2
:1003E800601C00080000002078000020601C000845
:1003F8000000001000000010780000201C01002000
:080408000000001000000010CC
:1004100010B50446074B1868074BA3FB0030800952
:1004200000F090F8002221464FF0FF3000F044F831
:10043000002010BD0C000020D34D621008B50B4BFE
:100440001A6842F400721A601A6842F480621A60F4
:100450001A6842F480721A60032000F00FF80F202F
:10046000FFF7D6FF00F035FE002008BD003C02403B
:10047000014B1868704700BF7C00002010B504468F
:10048000C31E042B0FD80A4AD36823F4E0631B046D
:100490001B0C240204F4E064234343F0BF6343F4E1
:1004A0000033D36010BDA421024800F04DFCEAE700
:1004B00000ED00E0201A000870B505460C4616460F
:1004C0000F2A25D80F2C28D81B4BDB68C3F3022337
:1004D000C3F10701042928BF04211A1D062A21D9C6
:1004E000033B4FF0FF3202FA01F124EA01049C4081
:1004F00002FA03F326EA03063443002D14DB240139
:10050000E4B205F1604505F5614585F8004370BD2D
:10051000BC210A4800F018FCD4E7BD21074800F0D0
:1005200013FCD1E70023DCE705F00F052401E4B25A
:10053000034B5C55EBE700BF00ED00E0201A00081C
:1005400014ED00E00138B0F1807F0BD24FF0E023D2
:100550005861054AF02182F8231000209861072293
:100560001A6170470120704700ED00E010B50446A5
:10057000042800D040B9042C0CD04FF0E0221369BD
:1005800023F00403136110BD40F2B311054800F0DD
:10059000DBFBF0E74FF0E022136943F00403136143
:1005A000F1E700BF201A000830B583B004460368A5
:1005B0000F2B29D8236813F0010F3DD06368012B5E
:1005C00001D9052B25D1A44B9B6803F00C03042B08
:1005D00029D0A14B9B6803F00C03082B1ED0227975
:1005E0009D4B9A706368002B50D0FFF741FF054682
:1005F000994B1B6813F4003F1ED1FFF739FF401BD6
:100600006428F5D90320E1E1F521944800F09CFB32
:10061000D0E7FA21914800F097FBD4E78E4B5B6856
:1006200013F4800FDBD08C4B1B6813F4003F03D016
:100630006368002B00F0C581236813F0020F5CD0C3
:10064000E368012B31D823691F2B34D8824B9B6878
:1006500013F00C0F3AD0804B9B6803F00C03082B6F
:100660002FD0E368002B74D07D4B01221A60FFF776
:10067000FFFE0546784B1B6813F0020F5AD1FFF7B7
:10068000F7FE401B0228F5D903209FE1FFF7F0FE9B
:100690000546714B1B6813F4003FCDD0FFF7E8FE11
:1006A000401B6428F5D9032090E14FF496716B4804
:1006B00000F04AFBC7E740F22D11684800F044FB08
:1006C000C4E7654B5B6813F4800FCAD1624B1B68AB
:1006D00013F0020F03D0E368012B40F074815E48F1
:1006E000036823F0F8032169F82292FAA2F2B2FA21
:1006F00082F201FA02F213430360236813F0080F39
:1007000052D06369012B36D86369002B39D0544B22
:100710000122C3F8802EFFF7ABFE05464E4B5B6F00
:1007200013F0020F40D1FFF7A3FE401B0228F5D9BA
:1007300003204BE14848036823F0F8032169F822BD
:1007400092FAA2F2B2FA82F201FA02F213430360C1
:10075000D3E7434B00221A60FFF78AFE05463E4B63
:100760001B6813F0020FC8D0FFF782FE401B02285F
:10077000F5D903202AE140F26D11384800F0E4FA7F
:10078000C2E7374B0022C3F8802EFFF771FE054603
:10079000314B5B6F13F0020F06D0FFF769FE401B71
:1007A0000228F5D9032011E1236813F0040F5BD070
:1007B000A368012B01D9052B1FD100230193264BE0
:1007C0001A6C42F080521A641B6C03F08053019340
:1007D000019B244A136843F480731360FFF748FEBB
:1007E0000546204B1B6813F4807F0CD1FFF740FEB9
:1007F000401B0228F5D90320E8E040F29711174882
:1008000000F0A2FAD9E7227A134B83F87020A3688C
:1008100083B1FFF72DFE05460F4B1B6F13F0020F40
:1008200022D1FFF725FE401B41F288339842F3D9CD
:100830000320CBE0FFF71CFE0546074B1B6F13F0B0
:10084000020F11D0FFF714FE401B41F2883398428B
:10085000F3D90320BAE000BF00380240541A000860
:100860000000474200700040A369022B39D8A369F9
:10087000002B00F0AA80574A926802F00C02082A66
:1008800000F0A680022B40F08880E36913B1B3F535
:10089000800F2CD1236A3F2B2FD8636A323BB3F5EC
:1008A000BF7F30D8A36A022B05D0042B03D0062BC0
:1008B00001D0082B2DD1E36A043B0B2B2FD8464BDC
:1008C00000221A66FFF7D4FD0546424B1B6813F061
:1008D000007F2AD0FFF7CCFD401B0228F5D903206A
:1008E00074E04FF4E6713D4800F02EFABFE740F2A5
:1008F000D5113A4800F028FACCE74FF4EB713748AD
:1009000000F022FAC9E740F2D711344800F01CFA8F
:10091000C8E74FF4EC71314800F016FACBE740F22B
:10092000D9112E4800F010FAC9E7E369226A13438F
:10093000616A47F6C07292FAA2F2B2FA82F201FA42
:1009400002F21343A26A5208013A4FF4403191FA7D
:10095000A1F1B1FA81F18A401343E16A4FF070626C
:1009600092FAA2F2B2FA82F201FA02F21343194A9F
:100970005360194B01221A66FFF77AFD0446154BA6
:100980001B6813F0007F06D1FFF772FD001B0228E1
:10099000F5D903201AE0002018E00F4B00221A6658
:1009A000FFF766FD04460B4B1B6813F0007F06D073
:1009B000FFF75EFD001B0228F5D9032006E00020AA
:1009C00004E0012002E0012000E0002003B030BD7F
:1009D0000120FBE70038024000004742541A00089B
:1009E000224B9B6803F00C03042B3AD0082B3AD11E
:1009F0001E4A536803F03F03526812F4800F1FD061
:100A00001B48B0FBF3F0194B5A6847F6C0731A4005
:100A100093FAA3F3B3FA83F322FA03F303FB00F090
:100A2000124B5B6803F440334FF4403292FAA2F267
:100A3000B2FA82F2D34001335B00B0FBF3F07047AF
:100A40000C48B0FBF3F0094B5A6847F6C0731A40E4
:100A500093FAA3F3B3FA83F322FA03F303FB00F050
:100A6000DEE7034870470348704700BF0038024084
:100A700000127A000024F40070B504460D460368A5
:100A8000013B0E2B5ED8072D62D88C4B1B6803F000
:100A90000F03AB4208D2EBB2884A1370136803F01D
:100AA0000F03AB4240F00481236813F0020F18D00B
:100AB000A3687BB1802B0DD0902B0BD0A02B09D03D
:100AC000B02B07D0C02B05D0D02B03D0E02B01D00A
:100AD000F02B43D17A4A936823F0F003A1680B43CB
:100AE0009360236813F0010F7FD06368032B3BD81A
:100AF0006368012B3ED09A1E012A42D9704A1268BF
:100B000012F0020F00F0D6806D498A6822F00302CD
:100B100013438B60FFF7ACFC06466368012B37D0AC
:100B2000022B44D0032B51D0654B9B6813F00C0F64
:100B30005BD0FFF79DFC801B41F288339842F3D9CC
:100B40000320A8E040F237215E4800F0FDF89AE764
:100B50004FF40E715B4800F0F7F896E740F24F2132
:100B6000584800F0F1F8B5E740F25621554800F03A
:100B7000EBF8BDE7524A126812F4003FC4D10120DD
:100B800089E04F4A126812F0007FBDD1012082E057
:100B90004B4B9B6803F00C03042B26D0FFF768FC3B
:100BA000831B41F288329342F2D9032073E0444B15
:100BB0009B6803F00C03082B17D0FFF759FC801B30
:100BC00041F288339842F2D9032064E03C4B9B68A1
:100BD00003F00C030C2B08D0FFF74AFC801B41F2FA
:100BE00088339842F2D9032055E0344B1B6803F058
:100BF0000F03AB4207D9EAB2304B1A701B6803F0FF
:100C00000F03AB4258D1236813F0040F14D0E368EC
:100C10005BB1B3F5805F08D0B3F5A05F05D0B3F545
:100C2000C05F02D0B3F5E05F36D1254A936823F464
:100C3000E053E1680B439360236813F0080F15D06D
:100C400023695BB1B3F5805F08D0B3F5A05F05D031
:100C5000B3F5C05F02D0B3F5E05F23D1184A9368C3
:100C600023F46043216943EAC1039360FFF7B8FEB0
:100C7000134B9B6803F0F003F02292FAA2F2B2FA4F
:100C800082F2D340104AD35CD840104B18600F203A
:100C9000FFF7BEFB002070BD4FF42D71094800F036
:100CA00053F8C2E740F2BB21064800F04DF8D5E703
:100CB0000120F0E70120EEE70120ECE7003C0240D4
:100CC00000380240541A0008841A00080C00002062
:100CD000014B1868704700BF0C000020FEE70000C1
:100CE00008B5034800F054F80120FFF7F7FF00BFF4
:100CF000941A000808B503460C4A12685AB10B4A08
:100D00001068033323F003030344094A934206D8CF
:100D1000064A136008BD054A06491160EFE700F076
:100D2000D9F90C2303604FF0FF30F3E78000002077
:100D300000FC01201C01002001230360014B0B601B
:100D4000704700BF0400002008B50A46014602486B
:100D500000F004F8FFF7C4FFA81A00080FB400B5AC
:100D600083B004AB53F8042B01938021074800F0B3
:100D7000EBF9002804DC03B05DF804EB04B0704725
:100D80000146024800F044F8F5E700BF8C0000205F
:100D900010B5044600F0A4F90146204600F038F8EA
:100DA0000121024800F034F810BD00BF6C1B0008A0
:100DB0002DE9F04385B004460F46435633BB042566
:100DC00028462146ABBE0446384605B0BDE8F08350
:100DD00014F901CB04AA1A4402F810CC0133AB4237
:100DE000F6D304AA1344002203F8102C4FF0040891
:100DF000E94640464946ABBE8046761B002EE3D00E
:100E00003546102E28BF10250023E8E70E46F5E7EB
:100E100008B5FFF7CDFF08BD08B500F093F8024A0A
:100E2000024B9A6008BD00BF0000000800ED00E022
:100E3000F8B504460D4617461E462748FFF78EFFB5
:100E400021682648FFF78AFF61682548FFF786FF7B
:100E5000A1682448FFF782FFE1682348FFF77EFF7F
:100E600021692248FFF77AFF61692148FFF776FF81
:100E7000A1692048FFF772FFE1691F48FFF76EFF85
:100E80001E48FFF76BFF29461D48FFF767FF1D4C03
:100E9000E16A1D48FFF762FF216B1C48FFF75EFF08
:100EA000E16B1B48FFF75AFF15F0800F0AD115F4CC
:100EB000004F0CD11748FFF751FF06991648FFF76E
:100EC0004DFFF8BD39461548FFF748FFEFE73146BB
:100ED0001348FFF743FFEDE7D41A0008E41A0008AF
:100EE000F41A0008041B0008141B0008241B000847
:100EF000341B0008441B0008541B0008641B000836
:100F0000701B000800ED00E0801B0008901B00082B
:100F1000A01B0008D01B0008D81B0008B01B00084D
:100F2000C01B000883691A888A4201D000207047DC
:100F30000268033A012A01D9002070470233836115
:100F4000012070470C4B1A6842F001021A60002120
:100F500099601A6822F0847222F480321A60074A7B
:100F60005A601A6822F480221A60D960044B4FF04C
:100F700000629A60704700BF0038024010300024C1
:100F800000ED00E0224B9B6803F00C03042B14D00F
:100F9000082B16D01BB11F4B1F4A1A6002E01D4BD5
:100FA0001D4A1A601A4B9B68C3F303131B4AD15C9A
:100FB000184A1368CB4013607047164B184A1A60E2
:100FC000F0E7134B59685A6802F03F0211F4800FA2
:100FD00013D0134BB3FBF2F30D4A5268C2F38812DD
:100FE00002FB03F30A4A5268C2F301420132520083
:100FF000B3FBF2F3074A1360D4E7074BB3FBF2F3FA
:10100000034A5268C2F3881202FB03F3EAE700BF07
:10101000003802400C0000200024F4001C1C0008D2
:1010200000127A0030B595B000240194214B1A6C5F
:1010300042F080521A641B6C03F080530193019BB1
:1010400002941D4B1A6842F480421A601B6803F434
:1010500080430293029B0123089309934FF480037A
:101060000F93082310934FF4A87311930225129540
:10107000072313930E9508A8FFF796FA0F230393FF
:10108000049505944FF4A05306934FF480530793AF
:10109000052103A8FFF7F0FCFFF71AFE074BA3FB9F
:1010A00000308009FFF74EFA0420FFF75FFA15B011
:1010B00030BD00BF0038024000700040D34D6210C8
:1010C00008B5FFF7BBF9FFF7ADFFFFF75BFF08BD02
:1010D000FEE77047014B1868704700BF1000002002
:1010E000034613F8012B002AFBD1181A0138704768
:1010F00030B51446002C9BB005461A4605DA8B2302
:1011000003604FF0FF301BB030BD4FF40273ADF8F9
:101110000C3014BF04F1FF332346029305934FF6BE
:10112000FF7300910491ADF80E3069461E9B00F0EC
:1011300075F8431CBCBF8B232B60002CE3D0009BB5
:1011400000221A70DFE7000007B5009313460A4635
:10115000014603480068FFF7CBFF03B05DF804FBCE
:10116000100000202DE9F0478E689E4282460C4612
:1011700090461F4638D88A8912F4906F32D025687D
:101180000969A5EB0109656905EB450505EBD57511
:1011900001334B446D109D4238BF1D46530531D578
:1011A000294600F097FB064650B90C23CAF80030D8
:1011B000A38943F04003A3814FF0FF30BDE8F087DF
:1011C00021694A4600F014FBA38923F4906343F09D
:1011D0008003A381266165614E44A5EB0905266065
:1011E000A5603E46BE4200D93E4620683246414692
:1011F00000F00CFBA3689B1BA360236833442360AF
:101200000020DBE72A4600F0BFFB06460028E1D1BC
:101210002169504600F014FBC7E700002DE9F04FAC
:1012200098468B891B069DB007460D4614460ED581
:101230000B6963B9402100F04DFB2860286120B99B
:101240000C233B604FF0FF30D1E040236B61002363
:10125000099320238DF82930CDF80C803023DFF856
:10126000A8818DF82A304FF0010923469A4613F8D9
:10127000012B0AB1252AF9D1BAEB040B0BD05B463E
:10128000224629463846FFF76DFF013000F0AA805C
:10129000099A5A4409929AF80030002B00F0A28073
:1012A00000234FF0FF32CDE905230AF1010A049330
:1012B00007938DF853301A935446052214F8011BF6
:1012C000514800F045FA049AD8B9D00644BF20230B
:1012D0008DF85330110744BF2B238DF853309AF803
:1012E00000302A2B15D0079A544600204FF00A0CE4
:1012F000214611F8013B303B092B4ED9B0B1079282
:1013000014E0A0EB080309FA03F313430493A24685
:10131000D2E7039B191D1B680391002BBBBF5B42E7
:1013200042F0020207930793B8BF049223782E2B52
:101330000CD163782A2B35D1039B1A1D1B680392AD
:10134000002BB8BF4FF0FF3302340593DFF8BCA089
:1013500021780322504600F0FBF940B14023A0EB76
:101360000A0003FA00F0049B03430134049314F8C9
:10137000011B27488DF82810062200F0E9F9002803
:1013800038D0244B1BBB039B073323F007030833E0
:101390000393099B3344099367E70CFB02320C4625
:1013A0000120A5E700230134059319464FF00A0CEC
:1013B000204610F8012B303A092A03D9002BC5D05A
:1013C0000591C3E70CFB012104460123F0E703ABC1
:1013D00000932A46104B04A93846AFF30080421C04
:1013E0000646D6D1AB895B063FF52CAF09981DB0F8
:1013F000BDE8F08F03AB00932A46074B04A938469B
:1014000000F07AF8EBE700BF2C1C0008321C000843
:10141000361C000800000000651100082DE9F047A7
:10142000164699468A680B69DDF820809342B8BF5A
:101430001346336091F8432007460C460AB1013346
:1014400033602368990642BF3368023333602568EE
:1014500015F0060506D104F1190AE36832689B1AF3
:10146000AB4226DC94F84320131E226818BF0123E8
:1014700092062BD404F1430249463846C047013056
:101480001ED02368E568326803F00603042B08BF0A
:10149000AD1AA36822690CBF25EAE57500259342C1
:1014A000C4BF9B1AED1800261A34B5421AD1002089
:1014B00008E00123524649463846C047013003D16F
:1014C0004FF0FF30BDE8F0870135C6E7E1185A1C40
:1014D000302081F84300224494F8451082F84310EC
:1014E0000233C7E70123224649463846C047013048
:1014F000E6D00136D9E700002DE9FF470F7E0C9DAD
:10150000782F914680460C469A4601F1430207D84F
:10151000622F0AD8002F00F0D880582F00F0A38047
:1015200004F1420584F842703AE0A7F16303152BF9
:10153000F6D801A151F823F091150008A51500086F
:1015400021150008211500082115000821150008A3
:10155000A51500082115000821150008211500080F
:1015600021150008B1160008D515000893160008CB
:101570002115000821150008D316000821150008C0
:10158000D515000821150008211500089B16000834
:101590002B681A1D1B682A6004F1420584F842304A
:1015A0000123A3E020682968060601F104030AD597
:1015B0000E682B60002E03DA2D23764284F8433028
:1015C0005E480A2319E00E682B6010F0400F18BF28
:1015D00036B2EFE72B682068191D2960010601D596
:1015E0001E6802E04606FBD51E8854486F2F0CBFCC
:1015F00008230A23002184F843106568A560002DA4
:10160000A2BF216821F0040121600EB9002D4DD048
:101610001546B6FBF3F103FB1167C75D05F8017DC5
:101620003746BB420E46F4D9082B0BD12368DE07A0
:1016300008D5236961689942DEBF302305F8013C73
:1016400005F1FF35521B2261CDF800A04B4603AADD
:1016500021464046FFF7E2FE01304CD14FF0FF300B
:1016600004B0BDE8F087354881F8457029682368E3
:1016700051F8046B29601D0614D5DF0744BF43F001
:10168000200323601EB9236823F020032360102366
:10169000B0E7236843F0200323607823284884F8C8
:1016A0004530E3E7590648BFB6B2E6E71546BBE763
:1016B0002B6826686169181D286035061B6801D5EE
:1016C000196002E07006FBD51980002323611546DE
:1016D000BAE72B681A1D2A601D6862680021284637
:1016E00000F036F808B1401B606063682361002396
:1016F00084F84330A8E723692A4649464046D04744
:101700000130ABD023689B0713D4E068039B984259
:10171000B8BF1846A4E70123324649464046D047A1
:1017200001309BD00135E36803995B1AAB42F2DCD0
:10173000EBE7002504F11906F5E700BF3D1C0008A2
:101740004E1C000800000000000000000000000027
:1017500001F0FF01102A2BDB10F0070F08D010F862
:10176000013B013A8B422DD010F0070F42B3F6D166
:10177000F0B441EA012141EA014122F007047FF07F
:1017800000070023F0E80256083C85EA010586EAD6
:10179000010685FA47F5A3FA87F586FA47F6A5FA12
:1017A00087F68EB9EED1F0BC01F0FF0102F007021E
:1017B00032B110F8013B013A83EA010313B1F8D1C9
:1017C0000020704701387047002D06BF35460338AA
:1017D000073815F0010F07D1013015F4807F02BFE3
:1017E000013015F4C03F0130F0BC0138704700BF34
:1017F0000A44914200F1FF3300D1704710B511F84F
:10180000014B03F8014F9142F9D110BD884210B548
:1018100001EB020402D98442234607D8431EA142A9
:1018200008D011F8012B03F8012FF8E70244014614
:101830008A4200D110BD13F8014D02F8014DF7E7BF
:1018400038B50546002941D051F8043C0C1F002B47
:10185000B8BFE41800F0CEF81D4A136833B96360CE
:1018600014602846BDE8384000F0CAB8A34208D941
:10187000206821188B4201BF19685B680918216034
:10188000EDE71A465B680BB1A342FAD9116850180C
:10189000A0420BD120680144501883421160E0D16E
:1018A00018685B68536001441160DAE702D90C23C1
:1018B0002B60D6E7206821188B4204BF19685B684B
:1018C000636004BF091821605460CAE738BD00BFD7
:1018D0000C010020F8B5CD1C25F0030508350C2DB2
:1018E00038BF0C25002D064601DBA94203D90C2385
:1018F00033600020F8BD00F07DF821490A681446E5
:101900009CB9204F3B6823B92146304600F062F86D
:1019100038602946304600F05DF8431C23D10C2383
:101920003360304600F06CF8E3E723685B1B17D4A4
:101930000B2B03D923601C44256004E06368A2429A
:101940000CBF0B605360304600F05AF804F10B00F6
:10195000231D20F00700C21ACCD01B1AA350C9E7E0
:1019600022466468CCE7C41C24F00304A042E3D000
:10197000211A304600F02EF80130DDD1CFE700BF4C
:101980000C01002010010020F8B5074614460E4651
:1019900021B9BDE8F8401146FFF79CBF22B9FFF717
:1019A0004FFF25462846F8BD00F030F8A0420FD280
:1019B00021463846FFF78EFF05460028F2D0314613
:1019C0002246FFF715FF31463846FFF739FFE9E7B2
:1019D0003546E7E738B5064D0023044608462B6038
:1019E000FFF788F9431C02D12B6803B1236038BD8F
:1019F00084000020014800F011B800BF140100204D
:101A0000014800F00CB800BF1401002051F8043C5C
:101A1000181F002BBCBF0B58C01870477047704789
:101A20002E2E2F73797374656D2F7372632F7374F9
:101A30006D333266342D68616C2F73746D3332668A
:101A40003478785F68616C5F636F727465782E6359
:101A5000000000002E2E2F73797374656D2F737242
:101A6000632F73746D333266342D68616C2F737419
:101A70006D3332663478785F68616C5F7263632EB1
:101A800063000000000000000102030401020304DF
:101A90000607080961626F727428292C206578692D
:101AA00074696E672E2E2E006173736572745F7099
:101AB0006172616D2829206661696C65643A2066EF
:101AC000696C6520222573222C206C696E652025A7
:101AD000640A0000537461636B206672616D653A3D
:101AE0000A000000205230203D2020253038580ABE
:101AF00000000000205231203D2020253038580AB7
:101B000000000000205232203D2020253038580AA5
:101B100000000000205233203D2020253038580A94
:101B20000000000020523132203D20253038580A74
:101B300000000000204C52203D2020253038580A5B
:101B400000000000205043203D2020253038580A56
:101B50000000000020505352203D20253038580A04
:101B6000000000004653522F4641523A0A0000003E
:101B70002043465352203D2020253038580A00008B
:101B80002048465352203D2020253038580A000076
:101B90002044465352203D2020253038580A00006A
:101BA0002041465352203D2020253038580A00005D
:101BB000204D4D464152203D20253038580A000026
:101BC0002042464152203D2020253038580A00004E
:101BD0004D6973630A000000204C522F4558435F43
:101BE00052455455524E3D20253038580A000000C9
:101BF0005B486172644661756C745D0A00000000A8
:101C00005B4275734661756C745D0A005B55736168
:101C100067654661756C745D0A0000000000000095
:101C2000000000000102030406070809232D302BE1
:101C30002000686C4C0065666745464700303132CD
:101C40003334353637383941424344454600303124
:0F1C500032333435363738396162636465660084
:101C60007856341288000020000000000024F400A0
:101C70001400002000000000000000000000000030
:101C80000000000000000000000000000000000054
:101C90000000000000000000000000000000000044
:101CA0000000000000000000000000000000000034
:101CB0000000000000000000000000000000000024
:101CC0000000000000000000000000000000000014
:081CD000000000003254769878
:040000050800018965
:00000001FF
