:020000040800F2
:100000000000022065020008690200086B02000877
:100010008102000883020008990200080000000025
:10002000000000000000000000000000AF02000817
:10003000B102000800000000B3020008350C0008FF
:10004000C9020008C9020008C9020008C902000864
:10005000C9020008C9020008C9020008C902000854
:10006000C9020008C9020008C9020008C902000844
:10007000C9020008C9020008C9020008C902000834
:10008000C9020008C9020008C902000800000000F7
:10009000000000000000000000000000C90200088D
:1000A000C9020008C9020008C9020008C902000804
:1000B000C9020008C9020008C9020008C9020008F4
:1000C000C9020008C9020008C9020008C9020008E4
:1000D000C9020008C9020008C902000800000000A7
:1000E000C9020008C9020008C90200080000000097
:1000F000000000000000000000000000C90200082D
:1001000000000000C9020008C9020008C902000876
:1001100000000000000000000000000000000000DF
:10012000C9020008C9020008C9020008C902000883
:10013000C9020008000000000000000000000000EC
:10014000000000000000000000000000C9020008DC
:10015000C9020008C9020008C9020008C902000853
:10016000C9020008C90200080000000000000000E9
:10017000000000000000000000000000000000007F
:1001800000000000C902000800000000000000009C
:10019000C9020008C902000807B500F085FC274B1A
:1001A0002748834226D3274A274900208A422CD356
:1001B00000F092FD254D264C01A9684600F06CFC2C
:1001C000641BA4100026B44228DC224D224C641B80
:1001D000A4100026B44226DCDDE9000100F086FD13
:1001E0001E4E1F4CA41B0546A410002C20DC2846E4
:1001F00000F04EFCD3E900129C680C33891A94423B
:10020000CFD9555815600432F9E752F8083B52F837
:10021000044C9C42CAD943F8040BFAE755F8043B56
:1002200098470136CFE755F8043B98470136D1E7A8
:10023000013C56F824309847D7E700BFCC020008AD
:10024000E4020008E4020008F4020008F4020008D6
:10025000F4020008F4020008F4020008F4020008A6
:10026000F402000814480047FEE71EF0040F0CBF1C
:10027000EFF30880EFF309807146104A1047FEE75C
:10028000FEE71EF0040F0CBFEFF30880EFF30980C8
:1002900071460B4A1047FEE71EF0040F0CBFEFF348
:1002A0000880EFF309807146064A1047FEE7FEE733
:1002B000FEE7FEE770470000990100087F02000892
:0A02C00097020008AD020008FEE7F7
:1002CC00380D0008000000200C000020380D00083C
:1002DC0000000010000000100C000020180000208E
:0802EC000000001000000010EA
:1002F40010B5084B044618684FF47A73B0FBF3F05A
:1003040000F076F8002221464FF0FF3000F03EF86E
:10031400002010BD0800002008B50B4B1A6842F4F9
:1003240000721A601A6842F480621A601A6842F411
:1003340080721A60032000F017F80F20FFF7D8FF2F
:1003440000F0E6FC002008BD003C0240024A1368AD
:1003540001331360704700BF0C000020014B186884
:10036400704700BF0C0000200749CA6822F4E0620D
:100374000302120403F4E063120C134343F0BF635B
:1003840043F40033CB60704700ED00E0164B30B50A
:10039400DC68C4F30224C4F10703251D042B28BF21
:1003A4000423062D4FF0FF3505FA03F38CBF033CFD
:1003B400002421EA0303A34005FA04F422EA040218
:1003C400002843EA0203ACBF00F16040074A4FEA49
:1003D4000313B8BF00F00F00DBB2AABF00F5614001
:1003E400135480F8003330BD00ED00E014ED00E05C
:1003F4000138B0F1807F0BD24FF0E023054A5861F9
:10040400F02182F823100020072298611A617047B6
:100414000120704700ED00E04FF0E02304281A6942
:100424000CBF42F0040222F004021A61704700007B
:100434002DE9F74FDFF88081604A00234FF001096E
:100444000C6809FA03FA0AEA04053AEA040440F0DB
:10045400A5804C6824F0100EBEF1020F14D14FEAAF
:10046400D30C00EB8C0C03F0070BDCF820604FEA94
:100474008B0B0F2707FA0BF726EA07070E6906FA14
:100484000BF63E43CCF82060D0F800B04FEA430CA2
:10049400032707FA0CF72BEA070BFE4304F00307C4
:1004A40007FA0CF70EF1FF3E47EA0B07BEF1010F06
:1004B400076011D8876806EA070ECF6807FA0CF7B9
:1004C40047EA0E078760476827EA0A0AC4F3001759
:1004D4009F4047EA0A074760C76837408E6806FAB4
:1004E4000CF63E43C660E60058D500260196D8F8BF
:1004F400447047F48047C8F84470D8F8447007F44F
:1005040080470197019F23F0030707F1804707F510
:100514009C3703F0030ED7F808A04FEA8E0E4FF075
:100524000F0C0CFA0EFC2AEA0C0CDFF894A05045D0
:1005340013D006F1804606F50136B04235D006F5F3
:100544008066B04233D006F58066B04231D006F5FD
:100554008066B0420CBF0426052606FA0EF646EA6B
:100564000C06BE601668EF4314F4803F0CBF3E4097
:100574002E431660566814F4003F0CBF3E402E43D1
:100584005660966814F4801F0CBF3E402E4396605C
:10059400D668A40254BF3E402E43D6600133102BCC
:1005A4007FF44EAF03B0BDE8F08F0126D5E70226F5
:1005B400D3E70326D1E700BF00380240003C0140E6
:1005C400000002400369194214BF01200020704753
:1005D4000AB1816170470904FBE700000368F7B5BD
:1005E4000446D80738D4236899076CD423681E07B7
:1005F40000F1B88023685D0728D500230193A64B3A
:10060400A64D1A6C42F080521A641B6C03F080539E
:100614000193019B2B6843F480732B60FFF79EFECC
:1006240006462B68DA0540F1C1809B4D237A85F894
:100634007030A368002B00F0C780FFF78FFE41F2F3
:10064400883706462B6F9B0740F1B780A269002AC2
:1006540040F0C980002015E08F4B9A6802F00C022C
:10066400042A07D09A6802F00C02082A0CD15A68AE
:10067400520209D5884B1B689B03B4D56368002BD1
:10068400B1D1012003B0F0BD22799A7063686BB1D7
:10069400FFF764FE804E054633689F03A3D4FFF73B
:1006A4005DFE401B6428F7D90320EBE7FFF756FEF5
:1006B400794E05463368980395D5FFF74FFE401BE6
:1006C4006428F7D9F0E7744B9A6812F00C0F07D03E
:1006D4009A6802F00C02082A16D15B68590213D4F6
:1006E4006D490B689A0702D5E368012BC9D10868E4
:1006F400F82393FAA3F3B3FA83F22369934020F027
:10070400F80213430B6071E7E268654BDAB101222A
:100714001A60FFF723FE604D06462B689B070CD535
:100724002968F82393FAA3F3B3FA83F22369934075
:1007340021F0F80213432B6058E7FFF70FFE801BEC
:100744000228EAD9B0E71A60FFF708FE524E0546C0
:1007540033689F077FF54AAFFFF700FE401B02286E
:10076400F6D9A1E762694E4B82B10122C3F8802E0B
:10077400FFF7F4FD484E0546736F98073FF53AAF0F
:10078400FFF7ECFD401B0228F6D98DE7C3F8802E55
:10079400FFF7E4FD404E0546736F99077FF52AAFD6
:1007A400FFF7DCFD401B0228F6D97DE7FFF7D6FDF5
:1007B400801B02287FF635AF76E7FFF7CFFD801B5D
:1007C400B8427FF63FAF6FE7FFF7C8FD41F28837C5
:1007D40006462B6F98077FF539AFFFF7BFFD801BE7
:1007E400B842F6D960E72C4DAB6803F00C03082B34
:1007F4003FF447AF2A4B022A4FF000021A663ED15B
:10080400FFF7ACFD06462B68990132D447F6C07653
:1008140096FAA6F64FF44032B6FA86F692FAA2F2A7
:100824004FF07061B2FA82F091FAA1F1D4E9073283
:100834001343626AB2401343A26A5208013A8240E7
:100844001343E26AB1FA81F102FA01F10B436B60DE
:10085400134B114D01221A66FFF780FD04462B68E5
:100864009A013FF5F7AEFFF779FD001B0228F6D990
:100874001AE7FFF773FD801B0228C4D914E7FFF7BA
:100884006DFD04462B689B017FF5E4AEFFF766FD22
:10089400001B0228F6D907E7003802400070004028
:1008A40000004742194B9A6802F00C02042A28D02F
:1008B400082A28D15A685968586811F4800F02F040
:1008C4003F0247F6C07191FAA1F3B3FA83F300EA49
:1008D400010020FA03F014BF0D4B0E4BB3FBF2F2F0
:1008E4000A4B50435B684FF4403292FAA2F2B2FAD8
:1008F40082F203F44033D34001335B00B0FBF3F0E6
:100904007047034870470348704700BF00380240EF
:1009140000E1F5050024F400554B1A6802F00F02BB
:100924008A422DE9F04104460D462FD322689607EA
:1009340036D4D0073CD44E4B1A6802F00F02AA42B8
:1009440000F286802268510700F18A80130707D5D8
:10095400484A2169936823F4604343EAC1039360DE
:10096400FFF7A0FF434BF0229B6892FAA2F2B2FA7F
:1009740082F203F0F003D3403F4AD35CD8403F4BAC
:1009840018600F20FFF7B4FC002007E0CAB21A7009
:100994001B6803F00F038B42C8D00120BDE8F0812F
:1009A4003449A0688B6823F0F00303438B60C0E7ED
:1009B4006268304B012A1DD11B6813F4003FECD050
:1009C4002C4EB36823F003031343B360FFF7C6FC54
:1009D4006368012B074641F2883815D1B36803F0E8
:1009E4000C03042BA7D0FFF7B9FCC01B4045F5D975
:1009F4000320D3E7911E01291B6802D813F0007F5E
:100A0400DDE713F0020FDAE7022B0AD1B36803F033
:100A14000C03082B8FD0FFF7A1FCC01B4045F5D970
:100A2400E6E7032B0FD1B36803F00C030C2B82D041
:100A3400FFF794FCC01B4045F5D9D9E7FFF78EFCBE
:100A4400C01B4045D4D8B36813F00C0FF6D172E73D
:100A5400EAB21A701B6803F00F03AB429DD171E731
:100A64000449E0688B6823F4E05303438B606DE72B
:100A7400003C024000380240160D00080800002027
:100A8400014B1868704700BF0800002008B500F04B
:100A940015F8000001230360014B0B60704700BF91
:100AA4000000002008B500F01BF8024B024A9A60CF
:100AB40008BD00BF00ED00E000000008BFF34F8F49
:100AC4000549064BCA6802F4E0621343CB60BFF3E6
:100AD4004F8F00BFFDE700BF00ED00E00400FA0502
:100AE4000C4B1A68002142F001021A6099601A68DE
:100AF40022F0847222F480321A60074A5A601A681B
:100B040022F480221A60D960044B4FF000629A608C
:100B1400704700BF003802401030002400ED00E0B0
:100B2400174A1849936803F00C03042B0DD0082BC3
:100B34000DD0154B0B60124B144A9B68C3F303137F
:100B4400D25C0B68D3400B607047114BF2E75368DB
:100B5400506813F4800F00F03F00536814BF0C4A30
:100B6400094AB2FBF0F0064A5268C2F30142C3F3E9
:100B74008813013243435200B3FBF2F3DAE700BFB8
:100B840000380240080000200024F400260D00086C
:100B940000E1F50570B586B0114B124D00260096A4
:100BA4001A6B42F002021A631B6B03F002030093F8
:100BB4004022009B0224012301A92846CDE90123F8
:100BC400CDE90334FFF734FC802301A92846CDE99D
:100BD4000136CDE90344FFF72BFC06B070BD00BF1E
:100BE40000380240000402400A4B64221B68B3FB35
:100BF400F2F3013BB3F1807F0AD24FF0E022F021FF
:100C04005361054B83F82310002393610723136179
:100C1400704700BF0800002000ED00E0034B1A6895
:100C240012B11A68013A1A60704700BF140000201C
:100C340008B5FFF78BFBBDE80840FFF7EFBF0000E6
:100C440070B594B00024214B01941A6C42F0805288
:100C54001A641B6C03F080530193019B1C4B029498
:100C64001A6842F440421A601B6803F4404302933A
:100C7400029B01234FF48002CDE908336423CDE9BC
:100C84000F2304264FF4A8730225CDE9113608A8D2
:100C9400072313930E95FFF7A1FC0F232946CDE9F3
:100CA400033503A84FF48053CDE906340594FFF7C8
:100CB40033FEFFF7E5FE4FF47A73B0FBF3F0FFF772
:100CC40097FB3046FFF7A8FB14B070BD0038024014
:100CD4000070004008B5FFF71FFBFFF7B1FFBDE848
:100CE4000840FFF71DBF000010B5FFF77DFFFFF7B9
:100CF40051FF064C05488021FFF764FC024600B111
:100D0400012240212046FFF763FCF3E70004024080
:100D140070470000000001020304010203040607F7
:100D24000809000000000000000001020304060797
:020D34000809AC
:0C0D380010000020000000000024F40067
:040000050800019955
:00000001FF
